:020000020000FC
:0200000014C02A
:10002A0002E00EBF0FE50DBF49D04FD0C79AC49A60
:10003A00C59AC698C4D0859B3FC0869B3AC0C798CC
:10004A00C49AC59AC69A859B19C0869B1AC0879B73
:10005A001BC0C79AC498C59AC69A859B18C0869B26
:10006A0019C0879B1AC0C79AC49AC598C69A859B15
:10007A0017C0869B18C0879B19C0D8CF01E073D0E0
:10008A00D5CF02E070D0D2CF03E06DD0CFCF04E05D
:10009A006AD0CCCF05E067D0C9CF06E064D0C6CF1E
:1000AA0007E061D0C3CF08E05ED0C0CF09E05BD0E3
:1000BA00BDCF00E058D0BACF08D0B8CF00EF07BB09
:1000CA0000E001BBA09AA19A089540E030E020E048
:1000DA0010E001D00895042F0CD034D0032F09D09A
:1000EA0031D0022F06D02ED0012F03D02BD06CD0C6
:1000FA000895003099F0013099F0023099F00330F8
:10010A0099F0043099F0053099F0063099F00730EB
:10011A0099F0083099F0093099F0089503E00895AC
:10012A000FE9089505E208950DE0089509E9089593
:10013A0009E4089501E408950FE1089501E008959E
:10014A0009E00895A898A9985527069508F002C0CD
:10015A00A99A01C0A998A89A00000000A8985395E6
:10016A00583099F70895100F05D00AD00FD014D03F
:10017A00B2DF08951A3008F408951A5023950895A5
:10018A002A3009F008952A50339508953A3009F033
:10019A0008953A50439508954A3009F0089503E0C6
:1001AA00D1DF03E8CFDF01E6CDDF01E1CBDFC79A7C
:1001BA00C49AC59AC6988599FECF87DF089566279F
:1001CA0063956030E9F7089577277395F8DF703003
:0401DA00E1F70895AC
:00000001FF
