:020000020000FC
:0200000014C02A
:10002A0002E00EBF0FE50DBF5AD019E413BF08E76F
:10003A0008BB0000859B17C0869B1CC0879B21C0FC
:10004A0008EE08BB0000859B23C0869B28C0879BBF
:10005A002DC008ED08BB0000859B2FC0869B34C0CD
:10006A00879B39C0E2CF19E713BF08E20CBF859B13
:10007A00FECFDBCF19E713BF0CE30CBF869BFECF85
:10008A00D4CF19E713BF00E50CBF879BFECFCDCFB6
:10009A0019E713BF04E60CBF859BFECFC6CF19E74D
:1000AA0013BF08E70CBF869BFECFBFCF19E713BF6C
:1000BA000CE80CBF879BFECFB8CF19E713BF00EA45
:1000CA000CBF859BFECFB1CF19E713BF08EC0CBF5D
:1000DA00869BFECFAACFC398879BFECFA6CF08EFF9
:0400EA0007BB0895B3
:00000001FF
