:020000020000FC
:0200000014C02A
:10002A0002E00EBF0FE50DBF00EF07BB8D988E985B
:10003A008F98BB9AC39AC798C49AC59AC69A859B41
:10004A001FC0869B1FC0879B1FC0C79AC498C59AAA
:10005A00C69A859B1BC0869B1BC0879B1BC0C79AE1
:10006A00C49AC598C69A859B17C0869B17C0879B5A
:10007A0017C0C79AC49AC59AC698869B13C0DBCF85
:10008A0041E012C042E010C043E00EC044E00CC0A0
:10009A0045E00AC046E008C047E006C048E004C0A0
:1000AA0049E002C040E000C0C798C49AC59AC69AFF
:1000BA00859B1FC0869B1FC0879B1FC0C79AC49879
:1000CA00C59AC69A859B1BC0869B1BC0879B1BC073
:1000DA00C79AC49AC598C69A859B17C0869B17C0AB
:1000EA00879B17C0C79AC49AC59AC698869B13C09D
:1000FA00DBCF51E012C052E010C053E00EC054E012
:10010A000CC055E00AC056E008C057E006C058E0E7
:10011A0004C059E002C050E000C0541711F01AF4AC
:10012A00C3CF452FC1CF452FC39A0CD0C3980AD04D
:10013A00C39A08D0C39806D0C39A04D0C39802D0F1
:10014A00C39AB2CF332704D033953030E1F70895FC
:0A015A00222723952030E9F70895CD
:00000001FF
