:020000020000FC
:1000000002E00EBF0FE50DBFA09AA19AA3988B98AE
:100010005FEF62D053E060D053E05ED053E05CD03D
:10002000839B13C09B99FCCF52D09B99F9CF4FD0A3
:100030004BD013951A3070F0039510E00A3050F051
:10004000A39510E000E0A33028F010E0A0E000E06D
:1000500001D0E6CF212F302F4A2F5FEF3DD0542F14
:100060000AD03AD0532F07D037D0522F04D034D0F3
:10007000D7CF00E00895503099F0513099F05230C8
:1000800099F0533099F0543099F0553099F056303A
:1000900099F0573099F0583099F0593099F0089507
:1000A00053E008955FE9089555E208955DE00895ED
:1000B00059E9089559E4089551E408955FE10895D8
:1000C00051E0089559E008959B9BFECF089577274E
:1000D00073957030E9F70895A898A9986627569502
:1000E00008F002C0A99A01C0A998A89A00000000CF
:0A00F000A8986395683099F7089509
:00000001FF
