:020000020000FC
:0200000014C02A
:10002A0002E00EBF0FE50DBF00EF07BB8C9A00E799
:10003A0008BB859B1CC0869B22C0879B28C000EEFC
:10004A0008BB859B2CC0869B32C0879B38C000EDBD
:10005A0008BB859B3CC0869B42C0879B48C0E7CFB4
:10006A0000EB08BB859B58D0879B52C0F9CFB3E001
:10007A00A7EED1E0C3EFF0E0E9EF41D0F1CFB1E074
:10008A00A3EFD0E0C9EFF0E0ECE739D0E9CFB1E077
:10009A00ACE4D0E0C6EAF0E0E3E531D0E1CFB0E08D
:1000AA00A9EFD0E0CCE7F0E0EEE329D0D9CFB0E079
:1000BA00A7ECD0E0C3E6F0E0E1E321D0D1CFB0E095
:1000CA00A6EAD0E0C3E5F0E0E9E219D0C9CFB0E092
:1000DA00AEE8D0E0C7E4F0E0E3E211D0C1CFB0E08F
:1000EA00ACE7D0E0CEE3F0E0EFE109D0B9CFB0E081
:1000FA00AEE6D0E0C7E3F0E0EBE101D0B1CFBBBDA3
:10010A00AABDD9BDC8BD03E20FBD09E10EBD089560
:10011A0008E10EBD11278BCF01E01027113011F035
:10012A0021F40895F9BDE8BD0895D9BDC8BD089563
:00000001FF
